:020000040800F2
:1000000000000220197700086D0D00086F0D000830
:10001000710D0008730D0008750D00080000000048
:10002000000000000000000000000000716D0008EA
:10003000770D000800000000116E00088F670008AF
:100040006977000869770008697700086977000810
:100050006977000869770008697700086977000800
:1000600069770008697700086977000869770008F0
:1000700069770008697700086977000869770008E0
:1000800069770008697700086977000869770008D0
:1000900069770008697700086977000869770008C0
:1000A00069770008697700086977000869770008B0
:1000B00069770008790D00086977000869770008FA
:1000C0006977000869770008697700086977000890
:1000D0006977000869770008697700086977000880
:1000E0006977000869770008697700086977000870
:1000F0006977000869770008697700086977000860
:10010000697700086977000869770008697700084F
:10011000697700086977000869770008697700083F
:10012000697700086977000869770008697700082F
:10013000697700086977000869770008697700081F
:10014000697700086977000869770008890D000859
:1001500069770008697700086977000869770008FF
:1001600069770008697700086977000869770008EF
:1001700069770008697700086977000800000000C7
:080180006977000869770008A7
:1001900010B5054C237833B9044B13B10448AFF3C1
:1001A00000800123237010BD8801002000000000A2
:1001B000E077000808B5034B1BB103490348AFF3D0
:1001C000008008BD000000008C010020E0770008DE
:1001D0004FEA4102B2F1E04324BFB3F5001CDCF169
:1001E000FE5C0DD901F0004C4FEAC0024CEA5070A1
:1001F000B2F1004F40EB830008BF20F001007047D0
:1002000011F0804F21D113F13872BCBF01F00040D2
:10021000704741F480114FEA5252C2F11802C2F104
:10022000200C10FA0CF320FA02F018BF40F0010085
:100230004FEAC1234FEAD32303FA0CFC40EA0C0037
:1002400023FA02F34FEA4303CCE77FEA625307D174
:1002500050EA01331EBF4FF0FE4040F440007047AB
:1002600001F0004040F0FE4040F40000704700BF45
:1002700053B94AB9002908BF00281CBF4FF0FF310D
:100280004FF0FF3000F0D2BAADF1080C6DE904CEAA
:1002900000F03AF8DDF804E0DDE9022304B070472D
:1002A00007EE900AF5EEC07AF1EE10FA01D400F0F4
:1002B0000BB8F1EE677A08B517EE900A00F004F873
:1002C000404261EB410108BDD0B500F015FC0C4B7C
:1002D000002206460F4600F07FF900F065FC044658
:1002E00000F0E8FB074B002200F076F902460B46CF
:1002F0003046394600F0A0FA00F056FC2146D0BD49
:100300000000F03D0000F0412DE9F047089D044653
:100310008E46002B4DD18A42944669D9B2FA82F2B8
:1003200052B101FA02F3C2F1200120FA01F10CFAF4
:1003300002FC41EA030E94404FEA1C48210CBEFB2C
:10034000F8F61FFA8CF708FB16E341EA034306FBB5
:1003500007F199420AD91CEB030306F1FF3080F044
:100360001F81994240F21C81023E63445B1AA4B291
:10037000B3FBF8F008FB103344EA034400FB07F733
:10038000A7420AD91CEB040400F1FF3380F00A8174
:10039000A74240F207816444023840EA0640E41B69
:1003A00000261DB1D4400023C5E900433146BDE815
:1003B000F0878B4209D9002D00F0EF800026C5E9B7
:1003C000000130463146BDE8F087B3FA83F6002ECF
:1003D0004AD18B4202D3824200F2F980841A61EB47
:1003E000030301209E46002DE0D0C5E9004EDDE765
:1003F00002B9FFDEB2FA82F2002A40F09280A1EB4D
:100400000C014FEA1C471FFA8CFE0126200CB1FBA1
:10041000F7F307FB131140EA01410EFB03F088429A
:1004200008D91CEB010103F1FF3802D2884200F227
:10043000CB804346091AA4B2B1FBF7F007FB1011B9
:1004400044EA01440EFB00FEA64508D91CEB040457
:1004500000F1FF3102D2A64500F2BB800846A4EBB2
:100460000E0440EA03409CE7C6F12007B34022FA9D
:1004700007FC4CEA030C20FA07F401FA06F31C43CC
:10048000F9404FEA1C4900FA06F3B1FBF9F8200CD9
:100490001FFA8CFE09FB181140EA014108FB0EF01F
:1004A000884202FA06F20BD91CEB010108F1FF3A6F
:1004B00080F08880884240F28580A8F1020861447B
:1004C000091AA4B2B1FBF9F009FB101144EA014189
:1004D00000FB0EFE8E4508D91CEB010100F1FF3434
:1004E0006CD28E456AD90238614440EA0840A0FBCC
:1004F0000294A1EB0E01A142C846A64656D353D0A2
:100500005DB1B3EB080261EB0E0101FA07F722FAC5
:1005100006F3F1401F43C5E9007100263146BDE8EE
:10052000F087C2F12003D8400CFA02FC21FA03F351
:10053000914001434FEA1C471FFA8CFEB3FBF7F0D2
:1005400007FB10360B0C43EA064300FB0EF69E42F7
:1005500004FA02F408D91CEB030300F1FF382FD290
:100560009E422DD9023863449B1B89B2B3FBF7F638
:1005700007FB163341EA034106FB0EF38B4208D911
:100580001CEB010106F1FF3816D28B4214D9023E52
:100590006144C91A46EA004638E72E46284605E770
:1005A0000646E3E61846F8E64B45A9D2B9EB020841
:1005B00064EB0C0E0138A3E74646EAE7204694E7D1
:1005C0004046D1E7D0467BE7023B614432E7304604
:1005D00009E76444023842E770B54FF0FF0C4CF471
:1005E000E06C1CEA11541DBF1CEA135594EA0C0F71
:1005F00095EA0C0F00F0DEF82C4481EA030621EAAC
:100600004C5123EA4C5350EA013518BF52EA0335E6
:1006100041F4801143F4801338D0A0FB02CE4FF098
:100620000005E1FB02E506F00042E0FB03E54FF0C8
:100630000006E1FB03569CF0000F18BF4EF0010EC0
:10064000A4F1FF04B6F5007F64F5407404D25FEABC
:100650004E0E6D4146EB060642EAC62141EA55516F
:100660004FEAC52040EA5E504FEACE2EB4F1FD0CB1
:1006700088BFBCF5E06F1ED8BEF1004F08BF5FEA2F
:10068000500E50F1000041EB045170BD06F00046E1
:1006900046EA010140EA020081EA0301B4EB5C048E
:1006A000C2BFD4EB0C0541EA045170BD41F4801186
:1006B0004FF0000E013C00F3AB8014F1360FDEBFAB
:1006C000002001F0004170BDC4F10004203C35DA87
:1006D0000C341BDC04F11404C4F1200500FA05F30A
:1006E00020FA04F001FA05F240EA020001F00042AB
:1006F00021F0004110EBD37021FA04F642EB060121
:100700005EEA430E08BF20EAD37070BDC4F10C044A
:10071000C4F1200500FA04F320FA05F001FA04F20E
:1007200040EA020001F0004110EBD37041F10001FA
:100730005EEA430E08BF20EAD37070BDC4F1200505
:1007400000FA05F24EEA020E20FA04F301FA05F26D
:1007500043EA020321FA04F001F0004121FA04F215
:1007600020EA020000EBD3705EEA430E08BF20EAE5
:10077000D37070BD94F0000F0FD101F0004640001F
:1007800041EB010111F4801F08BF013CF7D041EAA1
:10079000060195F0000F18BF704703F000465200A5
:1007A00043EB030313F4801F08BF013DF7D043EA76
:1007B0000603704794EA0C0F0CEA135518BF95EA2C
:1007C0000C0F0CD050EA410618BF52EA4306D1D1B3
:1007D00081EA030101F000414FF0000070BD50EAD2
:1007E000410606BF1046194652EA430619D094EA5C
:1007F0000C0F02D150EA013613D195EA0C0F05D146
:1008000052EA03361CBF104619460AD181EA030199
:1008100001F0004141F0FE4141F470014FF0000051
:1008200070BD41F0FE4141F4780170BD704700BFDA
:1008300081F0004102E000BF83F0004330B54FEA91
:1008400041044FEA430594EA050F08BF90EA020FFE
:100850001FBF54EA000C55EA020C7FEA645C7FEA91
:10086000655C00F0E2804FEA5454D4EB5555B8BFB4
:100870006D420CDD2C4480EA020281EA030382EA25
:10088000000083EA010180EA020281EA0303362DB7
:1008900088BF30BD11F0004F4FEA01314FF4801C8A
:1008A0004CEA113102D0404261EB410113F0004F9C
:1008B0004FEA03334CEA133302D0524263EB430353
:1008C00094EA050F00F0A780A4F10104D5F1200EF1
:1008D0000DDB02FA0EFC22FA05F2801841F100014C
:1008E00003FA0EF2801843FA05F359410EE0A5F120
:1008F00020050EF1200E012A03FA0EFC28BF4CF051
:10090000020C43FA05F3C01851EBE37101F0004506
:1009100007D54FF0000EDCF1000C7EEB00006EEB13
:100920000101B1F5801F1BD3B1F5001F0CD349089D
:100930005FEA30004FEA3C0C04F101044FEA4452F4
:1009400012F5800F80F09A80BCF1004F08BF5FEA7B
:10095000500C50F1000041EB045141EA050130BD5B
:100960005FEA4C0C404141EB0101013C28BFB1F56D
:10097000801FE9D291F0000F04BF01460020B1FAB8
:1009800081F308BF2033A3F10B03B3F120020CDA8B
:100990000C3208DD02F1140CC2F10C0201FA0CF069
:1009A00021FA02F10CE002F11402D8BFC2F1200CCE
:1009B00001FA02F120FA0CFCDCBF41EA0C01904084
:1009C000E41AA2BF01EB0451294330BD6FEA0404CD
:1009D0001F3C1CDA0C340EDC04F11404C4F12002B8
:1009E00020FA04F001FA02F340EA030021FA04F3CA
:1009F00045EA030130BDC4F10C04C4F1200220FA21
:100A000002F001FA04F340EA0300294630BD21FA5E
:100A100004F0294630BD94F0000F83F4801306BF24
:100A200081F480110134013D4EE77FEA645C18BF18
:100A30007FEA655C29D094EA050F08BF90EA020FAF
:100A400005D054EA000C04BF1946104630BD91EAA7
:100A5000030F1EBF0021002030BD5FEA545C05D1AA
:100A60004000494128BF41F0004130BD14F58004E9
:100A70003CBF01F5801130BD01F0004545F0FE415D
:100A800041F470014FF0000030BD7FEA645C1ABF92
:100A9000194610467FEA655C1CBF0B46024650EAC9
:100AA000013406BF52EA033591EA030F41F40021F5
:100AB00030BD00BF90F0000F04BF0021704730B57B
:100AC0004FF4806404F132044FF000054FF0000150
:100AD00050E700BF90F0000F04BF0021704730B511
:100AE0004FF4806404F1320410F0004548BF4042E6
:100AF0004FF000013EE700BF42004FEAE2014FEA3B
:100B000031014FEA02701FBF12F07F4393F07F4F15
:100B100081F06051704732F07F4208BF704793F018
:100B20007F4F04BF41F40021704730B54FF460742B
:100B300001F0004521F000411CE700BF50EA01022E
:100B400008BF704730B54FF000050AE050EA0102D7
:100B500008BF704730B511F0004502D5404261EB47
:100B600041014FF4806404F132045FEA915C3FF488
:100B7000D8AE4FF003025FEADC0C18BF03325FEA25
:100B8000DC0C18BF033202EBDC02C2F1200300FAD6
:100B900003FC20FA02F001FA03FE40EA0E0021FAFB
:100BA00002F11444BDE600BF4A0011D212F5001252
:100BB00011D20DD56FF47873B3EB62520ED44FEAB5
:100BC000C12343F0004343EA505323FA02F0704735
:100BD0004FF00000704750EA013002D14FF0FF3073
:100BE00070474FF00000704708B50268034B9A4207
:100BF00000D008BD01F0C2F9FBE700BF00040040CF
:100C000072B6FEE700B595B03022002108A806F0C4
:100C1000DFFD002303930493059306930793019349
:100C2000204A116C41F080511164126C02F0805224
:100C30000192019A02931C4B1A6842F480421A6096
:100C40001B6803F480430293029B012308934FF433
:100C50008033099302230E934FF480020F920422F3
:100C60001092A822119212930723139308A800F060
:100C7000B7FC98B90F230393022304930023059331
:100C80004FF4A05306934FF480530793052103A814
:100C900000F00CFF20B915B05DF804FBFFF7B0FFC2
:100CA000FFF7AEFF003802400070004008B501F0C9
:100CB0004BF9FFF7A7FF00F00FF801F001FA03F07E
:100CC0009DFF01F075FA06F0B9F905F06DFD04F02D
:100CD0006FF905F07BFDFEE730B58BB0002405947D
:100CE000069407940894099401941E4B1A6B42F0E1
:100CF00080021A631A6B02F080020192019A029438
:100D00001A6B42F001021A631A6B02F0010202929E
:100D1000029A03941A6B42F010021A631A6B02F0E3
:100D200010020392039A04941A6B42F008021A63A9
:100D30001B6B03F008030493049B0B4D22464FF4F6
:100D40007041284601F098F84FF470430593012351
:100D500006930794089405A9284600F09BFF0BB062
:100D600030BD00BF00380240000C0240FEE7FEE745
:100D7000FEE7FEE7FEE7704708B5024800F00CF911
:100D800008BD00BF9C1D002008B5024801F08AFE86
:100D900008BD00BF2817002000B583B000220092D4
:100DA0000D4B596C41F480415964596C01F48041F8
:100DB000009100990192196C41F0805119641B6CEB
:100DC00003F080530193019B0F216FF0010001F0AC
:100DD00075F803B05DF804FB0038024030B4036AD4
:100DE00023F001030362036A4268846924F07304F8
:100DF0000D682C4323F0020C8B6843EA0C03104D62
:100E0000A84203D005F58065A84205D123F0080368
:100E1000CD682B4323F00403094DA84203D005F508
:100E20008065A84205D122F440724D692A438D693C
:100E30002A43426084614A684263036230BC70475F
:100E40000000014030B4036A23F480730362036A34
:100E50004268C46924F0730C0C6844EA0C0523F45E
:100E600000738C6843EA0423114CA04203D004F5BC
:100E70008064A04206D123F40063CC6843EA0423D3
:100E800023F480630A4CA04203D004F58064A0429E
:100E900007D122F440524C6942EA04128C6942EABA
:100EA00004124260C5614A68C263036230BC704785
:100EB0000000014030B4036A23F480530362036AE4
:100EC0004468C26922F4E6420D6842EA052223F42E
:100ED00000538D6843EA0533094DA84203D005F558
:100EE0008065A84204D124F480444D6944EA851405
:100EF0004460C2614A680264036230BC704700BF4C
:100F0000000001407047000090F83D30DBB2012B3B
:100F100037D1022380F83D300268D36843F00103E3
:100F2000D3600368194A934220D0B3F1804F1DD09B
:100F3000A2F57C42934219D002F58062934215D00B
:100F400002F58062934211D002F5784293420DD0AF
:100F500002F57052934209D0A2F59432934205D023
:100F60001A6842F001021A60002070479A6802F085
:100F70000702062A07D01A6842F001021A60002010
:100F80007047012070470020704700BF00000140FB
:100F9000704770477047704710B5044603681A6978
:100FA00012F0020F11D0DA6812F0020F0DD06FF0BC
:100FB00002021A610123037703689B6913F0030F90
:100FC00070D0FFF7E6FF0023237723681A6912F039
:100FD000040F12D0DA6812F0040F0ED06FF0040282
:100FE0001A610223237723689B6913F4407F5FD043
:100FF0002046FFF7CEFF0023237723681A6912F0FB
:10100000080F12D0DA6812F0080F0ED06FF0080245
:101010001A61042323772368DB6913F0030F4ED092
:101020002046FFF7B6FF0023237723681A6912F0E2
:10103000100F12D0DA6812F0100F0ED06FF01002FD
:101040001A61082323772368DB6913F4407F3DD0BE
:101050002046FFF79EFF0023237723681A6912F0CA
:10106000010F03D0DA6812F0010F36D123681A6934
:1010700012F0800F03D0DA6812F0800F34D12368A9
:101080001A6912F0400F03D0DA6812F0400F32D123
:1010900023681A6912F0200F03D0DA6812F0200FCB
:1010A00030D110BDFFF774FF2046FFF773FF8AE7CA
:1010B0002046FFF76DFF2046FFF76CFF9BE72046B9
:1010C000FFF766FF2046FFF765FFACE72046FFF716
:1010D0005FFF2046FFF75EFFBDE76FF001021A6178
:1010E0002046FFF781FDC1E76FF080021A612046BC
:1010F00000F074FAC3E76FF040021A612046FFF770
:101100004AFFC5E76FF020021A61204600F065FA39
:10111000C7E700000368304A904212D0B0F1804F18
:101120000FD0A2F57C4290420BD002F58062904233
:1011300007D002F58062904203D002F578429042D7
:1011400003D123F070034A681343234A90422AD004
:10115000B0F1804F27D0A2F57C42904223D002F517
:10116000806290421FD002F5806290421BD002F54F
:101170007842904217D002F57052904213D002F597
:10118000806290420FD002F5806290420BD0A2F5AF
:101190009832904207D002F58062904203D002F567
:1011A0008062904203D123F44073CA68134323F052
:1011B00080034A69134303608B68C3620B688362D0
:1011C000054B984203D003F58063984201D10B6927
:1011D00003630123436170470000014040B310B531
:1011E000044690F83D30F3B1022384F83D302146A7
:1011F00051F8040BFFF78EFF012384F8463084F882
:101200003E3084F83F3084F8403084F8413084F830
:10121000423084F8433084F8443084F8453084F810
:101220003D30002010BD80F83C30FFF76BFEDBE75F
:101230000120704740B310B5044690F83D30F3B13B
:10124000022384F83D30214651F8040BFFF762FF7A
:10125000012384F8463084F83E3084F83F3084F827
:10126000403084F8413084F8423084F8433084F8C8
:10127000443084F8453084F83D30002010BD80F8BB
:101280003C3000F0ABFEDBE70120704730B4036A6E
:1012900023F010030362036A4468826922F4E64281
:1012A0000D6842EA052223F020038D6843EA051306
:1012B000114DA84203D005F58065A84206D123F060
:1012C0008003CD6843EA051323F040030A4DA8428A
:1012D00003D005F58065A84207D124F440644D6928
:1012E00044EA85048D6944EA8504446082614A6861
:1012F0008263036230BC70470000014038B590F84B
:101300003C30012B66D004460D46012380F83C306A
:101310000C2A5AD8DFE802F0075959591B59595974
:101320003059595944000068FFF758FD2268936905
:1013300043F0080393612268936923F004039361E7
:101340002268936929690B43936100203EE000689D
:10135000FFF79CFF2268936943F40063936122685E
:10136000936923F48063936122689369296943EA4E
:1013700001239361002029E00068FFF763FD2268E4
:10138000D36943F00803D3612268D36923F00403CF
:10139000D3612268D36929690B43D361002015E02A
:1013A0000068FFF787FD2268D36943F40063D361C7
:1013B0002268D36923F48063D3612268D3692969E1
:1013C00043EA0123D361002000E00120002384F8D8
:1013D0003C3038BD0220FCE701F01F01012303FA75
:1013E00001FC036A23EA0C030362036A02FA01F1B7
:1013F0000B4303627047000010B5044608460029FD
:1014000042D194F83E30DBB2013B18BF0123002BE0
:101410006ED1002851D1022384F83E3001220146CA
:101420002068FFF7D9FF2368334A934203D002F5BF
:101430008062934203D15A6C42F400425A6423689A
:101440002D4A934249D0B3F1804F46D0A2F57C4259
:10145000934242D002F5806293423ED002F5806210
:1014600093423AD002F57842934236D002F5705258
:10147000934232D0A2F5943293422ED01A6842F0B1
:1014800001021A60002032E0042908D008290DD09A
:1014900094F84130DBB2013B18BF0123B7E794F861
:1014A0003F30DBB2013B18BF0123B0E794F8403076
:1014B000DBB2013B18BF0123A9E7042805D00828A7
:1014C00007D0022384F84130A8E7022384F83F3094
:1014D000A4E7022384F84030A0E79A6802F00702EC
:1014E000062A07D01A6842F001021A60002010BDD7
:1014F0000120FCE70020FAE70000014090F83C30B2
:10150000012B3DD010B4012380F83C30022380F839
:101510003D3003685A689C6822F0700C0A6842EA01
:101520000C025A600368174A93421AD0B3F1804FF5
:1015300017D0A2F57C42934213D002F58062934209
:101540000FD002F5806293420BD002F578429342AD
:1015500007D002F57052934203D0A2F59432934221
:1015600004D124F080044A6814439C60012380F86D
:101570003D30002380F83C3018465DF8044B70473E
:10158000022070470000014090F83C30012B22D02F
:10159000012380F83C30CB6823F440738A681343FE
:1015A00023F480634A68134323F400630A681343F7
:1015B00023F480530A69134323F400534A69134305
:1015C00023F48043CA69134302685364002380F8FC
:1015D0003C30184670470220704770477047000043
:1015E000002800F0E08170B582B00446036813F073
:1015F000010F3BD09F4B9B6803F00C03042B2CD0B6
:101600009C4B9B6803F00C03082B21D06368B3F557
:10161000803F4FD0B3F5A02F52D0964B1A6822F4DA
:1016200080321A601A6822F480221A606368002BE4
:1016300050D000F0AFFC05468E4B1B6813F4003F02
:1016400014D100F0A7FC401B6428F5D90320B1E1B8
:10165000884B5B6813F4800FD8D0864B1B6813F45B
:10166000003F03D06368002B00F09F81236813F0D4
:10167000020F54D07F4B9B6813F00C0F3ED07D4B74
:101680009B6803F00C03082B33D0E368002B68D071
:10169000794B01221A6000F07DFC0546754B1B68F2
:1016A00013F0020F54D100F075FC401B0228F5D94D
:1016B00003207FE16F4A136843F480331360B5E77A
:1016C0006C4B1A6842F480221A601A6842F4803225
:1016D0001A60ABE700F05EFC0546664B1B6813F42E
:1016E000003FC3D000F056FC401B6428F5D903200E
:1016F00060E1604B5B6813F4800FC6D15D4B1B68E3
:1017000013F0020F03D0E368012B40F05081594AD7
:10171000136823F0F803216943EAC10313602368C7
:1017200013F0080F42D063696BB3534B0122C3F827
:10173000802E00F02FFC05464E4B5B6F13F0020F1E
:1017400034D100F027FC401B0228F5D9032031E1F9
:10175000484A136823F0F803216943EAC103136080
:10176000DDE7454B00221A6000F014FC0546414BB2
:101770001B6813F0020FD2D000F00CFC401B0228B3
:10178000F5D9032016E13C4B0022C3F8802E00F06F
:1017900001FC0546374B5B6F13F0020F06D000F0DB
:1017A000F9FB401B0228F5D9032003E1236813F05D
:1017B000040F77D02F4B1B6C13F0805F33D10023C5
:1017C00001932C4B1A6C42F080521A641B6C03F08C
:1017D00080530193019B0125284B1B6813F4807FE4
:1017E00023D0A368012B34D0052B38D0214B1A6F9E
:1017F00022F001021A671A6F22F004021A67A36826
:10180000002B3DD000F0C6FB06461A4B1B6F13F0B1
:10181000020F46D100F0BEFB801B41F28833984294
:10182000F3D90320C6E00025D6E7144A136843F431
:101830008073136000F0AEFB0646104B1B6813F478
:10184000807FCED100F0A6FB801B0228F5D90320B3
:10185000B0E0084A136F43F001031367CFE7054B6D
:101860001A6F42F004021A671A6F42F001021A67F7
:10187000C5E700BF0038024000004742007000404A
:1018800000F088FB0646524B1B6F13F0020F08D086
:1018900000F080FB801B41F288339842F3D903208B
:1018A00088E0EDB9A369002B00F08380484A926874
:1018B00002F00C02082A51D0022B17D0454B00220F
:1018C0001A6600F067FB0446414B1B6813F0007F6B
:1018D00042D000F05FFB001B0228F5D9032069E02D
:1018E0003B4A136C23F080531364DBE7394B00222F
:1018F0001A6600F04FFB0546354B1B6813F0007F5E
:1019000006D000F047FB401B0228F5D9032051E028
:10191000E369226A1343626A43EA8213A26A5208A5
:10192000013A43EA0243E26A43EA0263284A536007
:10193000284B01221A6600F02DFB0446244B1B683D
:1019400013F0007F06D100F025FB001B0228F5D91B
:1019500003202FE000202DE000202BE0012B2BD0D6
:101960001B4B5B6803F48001E269914226D103F0CE
:101970003F02216A8A4223D1616A47F6C0721A4047
:10198000B2EB811F1ED103F44031A26A5208013A22
:10199000B1EB024F18D103F07063E26AB3EB026F50
:1019A00014D1002006E001207047012002E0012050
:1019B00000E0002002B070BD0120FBE70120F9E744
:1019C0000120F7E70120F5E70120F3E70120F1E727
:1019D000003802400000474208B5314B9B6803F0D5
:1019E0000C03042B57D0082B57D12D4B5A6802F00B
:1019F0003F025B6813F4800F2AD0294B5968C1F36A
:101A0000881C4FEA4C11B1EB0C006EEB0E0E4FEA46
:101A10008E1343EA90638101091A63EB0E03DB0026
:101A200043EA5173C90011EB0C0C43F10003590256
:101A300000234FEA4C2041EADC51FEF719FC184B19
:101A40005B68C3F3014301335B00B0FBF3F025E0B7
:101A5000134B5968C1F3881C4FEA4C11B1EB0C00D1
:101A60006EEB0E0E4FEA8E1343EA90638101091A62
:101A700063EB0E03DB0043EA5173C90011EB0C0C5E
:101A800043F10003990200234FEA8C2041EA9C5164
:101A9000FEF7EEFBD3E7034800E0034808BD00BFB4
:101AA0000038024000127A000024F400002800F000
:101AB0009B8070B50D4604464F4B1B6803F007032F
:101AC0008B4208D2CBB24C4A1370136803F0070361
:101AD0008B4240F08B80236813F0020F17D013F075
:101AE000040F04D0454A936843F4E053936023689D
:101AF00013F0080F04D0414A936843F460439360A5
:101B00003E4A936823F0F003A1680B439360236877
:101B100013F0010F32D06368012B21D09A1E012AE5
:101B200025D9364A126812F0020F61D033498A680B
:101B300022F0030213438B6000F02CFA06462F4B71
:101B40009B6803F00C036268B3EB820F16D000F0C1
:101B500021FA801B41F288339842F0D9032042E0F9
:101B6000264A126812F4003FE0D101203BE0234AEC
:101B7000126812F0007FD9D1012034E01E4B1B689F
:101B800003F00703AB4207D9EAB21B4B1A701B687C
:101B900003F00703AB422DD1236813F0040F06D0E6
:101BA000164A936823F4E053E1680B43936023687B
:101BB00013F0080F07D0114A936823F4604321699A
:101BC00043EAC1039360FFF707FF0C4B9B68C3F325
:101BD00003130B4AD35CD8400A4B18600A4B1868B1
:101BE00003F0F8F9002070BD012070470120FAE7EA
:101BF0000120F8E70120F6E7003C024000380240EF
:101C0000F87700080800002004000020014B186845
:101C1000704700BF0800002008B5FFF7F7FF044B2E
:101C20009B68C3F38223034AD35CD84008BD00BF3E
:101C3000003802400878000808B5FFF7E7FF044BBA
:101C40009B68C3F34233034AD35CD84008BD00BF4E
:101C500000380240087800080F2303600B4B9A6895
:101C600002F0030242609A6802F0F00282609A6811
:101C700002F4E052C2609B68DB0803F4E0530361A6
:101C8000034B1B6803F007030B60704700380240EA
:101C9000003C024000230F2B00F2E48070B582B0BC
:101CA00060E085685E000324B44025EA0405CC6842
:101CB000B4402C438460456825EA02054C68C4F3AF
:101CC00000129A402A4342605AE0DC08083450F877
:101CD000246003F0070295000F22AA4026EA020EB4
:101CE0000A69AA4042EA0E0240F824205CE007227A
:101CF00000E0002202FA0EF22A4302345A4D45F85F
:101D000024205A4A14686FEA0C0224EA0C054E6833
:101D100016F4803F01D04CEA0405544C25606468F9
:101D200002EA04054E6816F4003F01D04CEA0405AF
:101D30004E4C6560A46802EA04054E6816F4801FE4
:101D400001D04CEA0405494CA560E46822404D6886
:101D500015F4001F01D04CEA0402444CE260013348
:101D60000F2B7DD801229A400C6804EA020C32EA5B
:101D70000404F4D14C6804F00304013C012C90D914
:101D80004A6802F00302032A09D0C4685D000322F6
:101D9000AA4024EA02048A68AA402243C2604A6830
:101DA00002F00302022A90D004684FEA430E032295
:101DB00002FA0EF224EA02044A6802F0030202FA6E
:101DC0000EF2224302604A6812F4403FC7D000225C
:101DD0000192274A546C44F480445464526C02F4D7
:101DE00080420192019A9C08A51C1F4A52F8255076
:101DF00003F003024FEA820E0F2202FA0EF225EAE6
:101E000002051C4A90423FF474AF02F58062904292
:101E10001AD002F58062904218D002F5806290429A
:101E200016D002F58062904214D002F58062904292
:101E300012D002F58062904210D002F5806290428A
:101E40003FF455AF082255E7012253E7022251E73C
:101E500003224FE704224DE705224BE7062249E71C
:101E600002B070BD704700BF00380140003C014027
:101E700000380240000002400AB181617047090445
:101E800081617047436901EA030221EA030141EAE3
:101E90000241816170470000074AD36823F4E06380
:101EA0001B041B0C000200F4E060034343F0BF631B
:101EB00043F40033D360704700ED00E000B5194BE8
:101EC000DB68C3F30223C3F1070CBCF1040F28BF86
:101ED0004FF0040C03F1040EBEF1060F18D9033BBA
:101EE0004FF0FF3E0EFA0CFC21EA0C0199400EFA6D
:101EF00003F322EA0303194300280BDB0901C9B2EB
:101F000000F1604000F5614080F800135DF804FBCB
:101F10000023E5E700F00F000901C9B2024B195494
:101F2000F4E700BF00ED00E014ED00E0002807DB5F
:101F300000F01F02400901239340024A42F820307A
:101F4000704700BF00E100E008B50B4B1A6842F48F
:101F500000721A601A6842F480621A601A6842F4C9
:101F600080721A600320FFF797FF0F2003F032F80A
:101F7000FEF712FF002008BD003C0240034A116832
:101F8000034B1B780B441360704700BFA401002073
:101F900000000020014B1868704700BFA40100201A
:101FA00038B50446FFF7F6FF0546B4F1FF3F02D00F
:101FB000044B1B781C44FFF7EDFF401BA042FAD3F3
:101FC00038BD00BF00000020034AD2F8883043F437
:101FD0007003C2F88830704700ED00E082B00368FB
:101FE000104A934204D0B3F1804F0ED002B0704734
:101FF000002300930C4B5A6C42F001025A645B6C54
:1020000003F001030093009BF0E700230193064BCC
:102010001A6C42F001021A641B6C03F00103019375
:10202000019BE3E7000001400038024000B589B0A1
:1020300000230393049305930693079303681C4AB4
:10204000934205D0B3F1804F1AD009B05DF804FB7C
:1020500000230193174B1A6B42F010021A631B6B9B
:1020600003F010030193019B4FF4D4430393022325
:1020700004930123079303A90F48FFF70BFEE4E73E
:10208000002302930B4B1A6B42F001021A631B6B85
:1020900003F001030293029B0F2303930223049393
:1020A0000123079303A90548FFF7F4FDCDE700BF1F
:1020B00000000140003802400010024000000240D1
:1020C00010B592B000241094119409940A940B94C2
:1020D0000C940D940E940F942022214601A805F033
:1020E00077FB3148314B0360A7234360846040F2A3
:1020F000E733C3600461446180238361FFF79AF88A
:1021000000283CD100231093119310A92648FFF713
:10211000F5F9002836D16023099300220A920B9228
:102120000C920D920E920F9209A91F48FFF7E6F844
:1021300058BB042209A91C48FFF7E0F840BB08225D
:1021400009A91948FFF7DAF828BB0C2209A9164893
:10215000FFF7D4F810BB0023019302930393049379
:1021600005934FF400520692089301A90E48FFF719
:102170000BFAB0B90C48FFF759FF12B010BDFEF7CB
:102180003FFDBFE7FEF73CFDC5E7FEF739FDD0E7B1
:10219000FEF736FDD3E7FEF733FDD6E7FEF730FD59
:1021A000D9E7FEF72DFDE5E7A8010020000001407A
:1021B00000B58BB000230893099301930293039316
:1021C000049305930693079326484FF080420260DC
:1021D00053224260836040F2E732C2600361802391
:1021E0008361FFF727F858BB00230893099308A9D8
:1021F0001C48FFF783F930BB602301930022029251
:102200000392059201A91748FFF778F8F0B9042264
:102210000DEB02011348FFF771F8D0B9082201A9AC
:102220001048FFF76BF8B8B90C2201A90D48FFF769
:1022300065F8A0B90B48FFF7F9FE0BB05DF804FB99
:10224000FEF7DEFCD0E7FEF7DBFCD5E7FEF7D8FCB7
:10225000DDE7FEF7D5FCE1E7FEF7D2FCE4E7FEF7A9
:10226000CFFCE7E7F001002008B500220F49104835
:1022700001F0CAFD70B90F490D4801F0DCFD60B9ED
:102280000D490B4802F06BFC50B9094801F0EAFD1A
:1022900048B908BDFEF7B4FCEDE7FEF7B1FCEFE787
:1022A000FEF7AEFCF1E7FEF7ABFCF2E70C00002016
:1022B00038020020700000205C00002012230B80F8
:1022C000004870472800002004230B800048704716
:1022D0003C000020002393421ED200B510E00CF118
:1022E000370C01F813C000014FEA430C0CF1010C4C
:1022F0004FF0000E01F80CE00133DBB2934209D23B
:102300004FEA107CB0F1204FE9D20CF1300C01F80B
:1023100013C0E8E75DF804FB7047000038B50B4BCD
:10232000D3F8100AD3F8144AD3F8183AC01800D1D9
:1023300038BD074D0822A91CFFF7CCFF042205F188
:1023400012012046FFF7C6FFF2E700BF0070FF1F33
:102350004000002008B51A230B80FFF7DFFF01487B
:1023600008BD00BF4000002008B50A4628B905494D
:10237000054802F018FA034808BD0249024802F075
:1023800012FAF8E7080500201078000810B50A4690
:10239000034C2146034802F006FA204610BD00BF58
:1023A000080500202878000808B50A4628B905491C
:1023B000054802F0F8F9034808BD0249024802F056
:1023C000F2F9F8E7080500203C78000808B50A464D
:1023D00028B90549054802F0E6F9034808BD024955
:1023E000024802F0E0F9F8E7080500204878000804
:1023F00000207047002070470020704710B5064C41
:1024000000220649204602F0B1FB0549204602F0B1
:10241000B8FB002010BD00BF38020020080F0020CC
:102420000807002070B504460D460F4E01463046A1
:1024300002F0A7FB304602F0C7FB2A68214630466F
:1024400002F094FB304602F0A5FB2B68013B074EDF
:10245000304600F8013B2A68214605F0ABF93046CA
:1024600005F04EF9002070BD38020020081700204A
:1024700030B589B000230393049305930693079323
:102480000368B3F1A04F01D009B030BD002501951C
:10249000164C236B43F001032363236B03F001030A
:1024A0000193019B4FF4C05303930223049303232E
:1024B00006930A23079303A90D48FFF7EBFB636B11
:1024C00043F0800363630295636C43F48043636469
:1024D000636C03F480430293029B2A460521432048
:1024E000FFF7ECFC4320FFF721FDCDE70038024069
:1024F0000000024008B500F57171D0F8040401F045
:10250000C6FC08BD08B5C1EBC10300EB8303D3F8DB
:102510000822D0F8040401F0E6FC08BD08B5C1EBC0
:10252000C10300EB83039A6CD0F8040401F017FD9B
:1025300008BD08B5D0F8040401F0B7FD08BD10B51A
:102540000446C3683BB1022B01D1012104E0FEF730
:1025500057FB012100E00021D4F8040401F08BFDB9
:10256000D4F8040401F05AFD10BD000010B5044673
:10257000D0F8040401F082FD2268D2F8003E43F056
:102580000103C2F8003E236A23B1034A136943F0F2
:102590000603136110BD00BF00ED00E008B5D0F8E0
:1025A000040401F075FD08BD08B5D0F8040401F07D
:1025B000A4FD08BD08B5D0F8040401F08AFD08BDEB
:1025C00008B5D0F8040401F0ACFD08BD08B5D0F89A
:1025D000040401F0A8FD08BD02780AB1002070478C
:1025E00010B503461548C0F80434C3F8C4024FF0D0
:1025F000A0430360042343600222C26000230361FE
:102600008261C36103624362C362036300F0F0F856
:1026100080B90A4C8021204600F01DFE4022002196
:10262000204600F0F2FD80220121204600F0EDFD61
:10263000002010BDFEF7E4FAEBE700BF28170020EA
:10264000D0F8C43211F0800F08D101F07F01C1EB46
:10265000C10103EB810191F8FE01704701F07F0198
:10266000C1EBC10103EB810191F83E00704708B551
:10267000D0F8C40200F012FD08BD00000048704709
:10268000301B00207047032805D8DFE800F0050460
:102690000205012070470320704708B5D0F8C40236
:1026A00000F03DF9FFF7EFFF08BD08B594461A4664
:1026B0006346D0F8C40200F044FCFFF7E4FF08BD15
:1026C00008B5D0F8C40200F081FCFFF7DCFF08BDBC
:1026D00008B5D0F8C40200F019FDFFF7D4FF08BD1B
:1026E00008B5D0F8C40200F055FDFFF7CCFF08BDD7
:1026F00008B5D0F8C40200F010FCFFF7C4FF08BD15
:1027000008B5D0F8C40200F0D2FCFFF7BCFF08BD4A
:1027100008B5D0F8C40200F092FCFFF7B4FF08BD82
:102720002DE9F04383B0D0F80080C1EBC10300EB8A
:1027300083035A6D1B6D9A4254D807460C469B1A68
:10274000C1EBC10200EB8202526C9A4200D31A46DE
:1027500002F103094FEA990915E006F103094FEA6E
:102760009909C4EBC40507EB8505A96C3B7C009374
:10277000B3B2E2B2404601F0BBF8AB6C3344AB6499
:102780006B6D33446B6508EB441303F510639B6971
:102790009BB24B4512D3C4EBC40207EB8202516DCE
:1027A000136D99420AD24BB15B1AC4EBC40207EB1A
:1027B0008202566C9E42D0D31E46CEE7C4EBC400C4
:1027C00007EB80073A6D7B6D9A420FD804F00F0437
:1027D0000123A340D8F8344824EA0304C8F8344855
:1027E000002000E0012003B0BDE8F0830020FAE7FC
:1027F00070B58AB0002800F090800546046890F813
:10280000BD333BB3032385F8BD33E36B13F4807F03
:1028100001D100232B61286800F006FE2C4654F8F5
:10282000106BEC460FCCACE80F000FCCACE80F00FF
:1028300094E803008CE803002B1D0ECB304600F01B
:1028400035FD044658B1022385F8BD3301242046E6
:102850000AB070BD80F8BC33FFF70AFED2E7002152
:10286000286801F05FFA234616E0C3EBC30205EBCC
:102870008202012182F83D1082F83C30A2F84230F9
:10288000002182F83F1051649164C3EBC30205EB51
:10289000820211650133DBB269688B42E5D316E031
:1028A000C4EBC40305EB8303002283F8FD2183F806
:1028B000FC4183F8FF21C3F80422C3F80822C4EBCB
:1028C000C40305EB8303C3F810220134E4B2A14230
:1028D000E6D82C4654F8106BEC460FCCACE80F0051
:1028E0000FCCACE80F0094E803008CE803002B1D2C
:1028F0000ECB304600F0D4FD044620B1022385F80B
:10290000BD330124A3E7002385F83830012385F87F
:10291000BD33286801F0C3F999E7012497E70268FD
:1029200090F8BC33012B19D010B50446012380F870
:10293000BC33836A012B09D0206800F06FFD20684A
:1029400001F09FF9002084F8BC0310BD8369012BBE
:10295000F2D0936B43F480339363EDE7022070472A
:1029600070B504460D460068066C00EB411303F594
:1029700030639A682169012911D034498E424ED0C2
:102980003DB9C5EBC50304EB8303D3F81032002B2C
:1029900056D0E9B22046FFF7B5FD002070BD12F019
:1029A000080F09D02A498E42F7D912F4004FF4D00B
:1029B0004FF400429A60F0E712F0200F02D020227C
:1029C0009A60EAE712F0280FE7D121498E4206D932
:1029D00012F4004F03D04FF400429A60DDE7C5EBDC
:1029E000C50204EB8202D2F804121B69C3F312037E
:1029F000CB1AC2F81432D2F808320B44C2F80832AB
:102A000015B9D2F8103223B1E9B22046FFF77AFDAA
:102A1000C3E704F57172012101F0C6F9F4E712F47D
:102A2000004F03D04FF400429A60B6E712F0200F37
:102A300001D020229A60E9B22046FFF763FDACE79F
:102A400004F57172002101F0AFF9A2E70A31544F89
:102A50000A30544F38B5044603681D6C03EB41132C
:102A6000D3F8081B0E4A954207D903F5306311F4D9
:102A7000004F02D04FF400429A602046FFF73AFD23
:102A8000074B9D4202D92369012B01D0002038BD9C
:102A900004F571720121206801F086F9F6E700BFA4
:102AA0000A30544F2DE9F84F04460568284601F0D6
:102AB00035F908B1BDE8F88F0646206801F0FDF849
:102AC0000028F7D0206801F0F8F810F0020F04D0C9
:102AD0002268536903F002035361206801F0EDF8A6
:102AE00010F0100F13D02268936923F01003936144
:102AF0002F6A07F00F08C7F34343022B68D0062B59
:102B000000F084802268936943F010039361206889
:102B100001F0D3F810F4002F40F08A80206801F013
:102B2000CCF810F4802F40F0CC80206801F0C5F87C
:102B30000028C0F23681206801F0BFF810F4006F61
:102B40000AD0D5F8083813F0010F40F0448122680C
:102B5000536903F400635361206801F0AEF810F488
:102B6000805F40F03C81206801F0A7F810F4005F1E
:102B700040F09181206801F0A0F810F0080F40F0BB
:102B8000A281206801F099F810F4801F40F0A48120
:102B9000206801F092F810F4001F40F0A78120682F
:102BA00001F08BF810F0804F40F0AA81206801F00E
:102BB00084F810F0040F3FF47DAF23685D6815F0D2
:102BC000040F40F0A681226853682B43536071E7DD
:102BD00047F6F0731F4295D04FEA171BC8EBC809A0
:102BE00004EB8909C7F30A12D9F80812284600F045
:102BF000B3FFCBF30A02D9F808321344C9F80832FC
:102C0000D9F814321A44C9F814227BE7082204F5D3
:102C10007171284600F0A0FFC7F30A17C8EBC8027D
:102C200004EB8202D2F814321F44C2F8147269E72E
:102C3000206801F046F80746B04616E005EB481359
:102C40000122C3F8082B41462046FFF789FE1BE00E
:102C500005EB48130822C3F8082B41462046FFF72E
:102C6000F9FE14E008F101087F08002F3FF456AF89
:102C700017F0010FF6D05FFA88F1206801F031F803
:102C8000814610F0010FD9D119F0080FE0D119F0E9
:102C9000100F04D005EB48131022C3F8082B19F0CD
:102CA000200F04D005EB48132022C3F8082B19F499
:102CB000005FD7D005EB48134FF40052C3F8082B40
:102CC000D0E7206801F005F80746B04629E05146F4
:102CD0002046FFF723FC19F0080F04D005EB48133A
:102CE0000822C3F8082919F0100F04D005EB481387
:102CF0001022C3F8082919F0400F04D005EB48133F
:102D00004022C3F8082919F0020F04D005EB48133C
:102D10000222C3F8082919F0800F3DD108F10108FB
:102D20007F08002F3FF401AF17F0010FF6D05FFAD4
:102D300088FA5146206800F0DDFF814610F0010F4F
:102D4000C9D008F00F03012101FA03F2D5F8343895
:102D500023EA0203C5F8343805EB4813C3F8081911
:102D600023698B42B3D1C8EBC80304EB8303596CCE
:102D70009A6C0A449A64B8F1000FA8D1C8EBC80352
:102D800004EB83031B6D002BA1D104F571720121AB
:102D9000206801F009F89AE741462046FFF7C0FC99
:102DA000BCE7D5F8043823F00103C5F8043894F8DB
:102DB000F433012B08D02046FFF7F0FB226853695B
:102DC00003F000435361B6E6002184F8F413204673
:102DD00000F045FAF2E72046FFF7C8FBB7E605F535
:102DE00000677B6823F001037B601021206800F0FE
:102DF00021FB20E005EB46134FF67F31C3F808199D
:102E0000D3F8002922F40012C3F80029D3F80029CE
:102E100042F00062C3F80029C3F8081BD3F8002B66
:102E200022F40012C3F8002BD3F8002B42F000620A
:102E3000C3F8002B01366368B342DBD8FB6943F06B
:102E40000113FB61236BDBB1D7F8843043F00B0334
:102E5000C7F884307B6C43F00B037B64D5F80038F3
:102E600023F4FE63C5F8003804F57172217C2068F4
:102E700000F09AFF2268536903F48053536172E6AD
:102E80007B6943F4005343F02B037B613B6943F0C0
:102E90000B033B61E2E7206800F075FF206800F05B
:102EA000C7FBE0602568FEF7B1FE0146227B28469D
:102EB00000F042FA2046FFF742FB2268536903F410
:102EC0000053536156E62046FFF733FB22685369EF
:102ED00003F00803536154E600212046FFF76AFB24
:102EE0002268536903F48013536151E600212046A0
:102EF000FFF75AFB2268536903F4001353614EE64F
:102F00002046FFF75DFB2268536903F0804353615D
:102F10004CE62046FFF75AFB55E690F8BC33012BF0
:102F20000DD010B50446012380F8BC3380F838106A
:102F3000006800F096FE002084F8BC0310BD02205B
:102F4000704738B505468C4611F0800F29D101F045
:102F50000F0ECEEBCE04A40004F5FC740444211D36
:102F6000CEEBCE0E00EB8E0E00208EF8FD010CF0A5
:102F70000F0C81F800C08A60CB704A780AB1A1F8C2
:102F800006C0022B1DD095F8BC33012B1CD00123A9
:102F900085F8BC33286800F05CFB002085F8BC0392
:102FA00038BD01F00F00C0EBC00189003831294461
:102FB0000431C0EBC00005EB8000012480F83D40E7
:102FC000D5E700230B71DEE70220E9E710B50446E0
:102FD0000A4611F0800F20D101F00F00C0EBC003B2
:102FE0009B0003F5FC732344191DC0EBC00004EBE8
:102FF0008000002380F8FD3102F00F020A7094F87F
:10300000BC33012B19D0012384F8BC33206800F0B5
:103010006FFB002084F8BC0310BD01F00F00C0EB73
:10302000C0039B0038332344191DC0EBC00004EBE0
:103030008000012380F83D30DEE70220ECE710B588
:1030400001F00F04C4EBC401890001F5FC710144D7
:103050000431C4EBC40C00EB8C0CCCF80822CCF887
:1030600010320023CCF814328CF8FD318CF8FC417E
:103070000369012B06D064B9DAB2006800F0A8FB3E
:10308000002010BDC4EBC40C00EB8C0CCCF80C225F
:10309000F1E7DAB2006800F043FCF1E701F00F015C
:1030A000C1EBC10100EB8101D1F81402704710B5EA
:1030B00001F00F04C4EBC40189003831014404312C
:1030C000C4EBC40C00EB8C0CCCF84820CCF850308E
:1030D0000023CCF8543001238CF83D308CF83C4070
:1030E0000369012B06D064B9DAB2006800F070FB06
:1030F000002010BDC4EBC40C00EB8C0CCCF84C20B1
:10310000F1E7DAB2006800F00BFCF1E738B501F046
:103110000F054268954239D804460B4611F0800FDE
:103120001FD1C1EBC101890001F5FC7101440431DB
:10313000C3EBC30300EB8303002283F8FD210123CB
:103140008B700D7094F8BC33012B21D0012384F8CF
:10315000BC33206800F02AFD8DB1002084F8BC0348
:1031600038BDC5EBC5018900383101440431C5EBD8
:10317000C50300EB8303012283F83D20DFE704F55C
:103180007172217C206800F00FFEE6E70120E7E77E
:103190000220E5E701F00F034268934231D810B5F1
:1031A000044611F0800F1ED1C3EBC301890001F565
:1031B000FC7101440431C3EBC30200EB8202002026
:1031C00082F8FD0100228A700B7094F8BC33012B49
:1031D00019D0012384F8BC33206800F014FD0020CE
:1031E00084F8BC0310BDC3EBC3018900383101442E
:1031F0000431C3EBC30200EB8202012082F83D00E0
:10320000E0E7012070470220ECE710B40468606A30
:1032100031B940EA0240A06200205DF8044B7047DB
:103220008C46A36A00EB1340002308E003F1400141
:1032300004EB8101496800EB11400133DBB20CF172
:10324000FF318B42F2D340EA02400CF13F0104EB24
:1032500081014860E0E703685962002070477047C9
:1032600082B000230193019B013301930E4A9342E4
:1032700014D80369002BF6DA00230193036943F0A5
:1032800001030361019B01330193074A934208D86C
:10329000036913F0010FF5D1002000E0032002B014
:1032A00070470320FBE700BF400D030084B010B55A
:1032B000044603A880E80E00089B012B1FD1A36BD6
:1032C00023F48033A363E36823F4840323F04003EF
:1032D000E360E36823F44013E3600F9B012B09D004
:1032E0002046FFF7BDFF069B012B1BD0BDE8104019
:1032F00004B07047E36843F48013E360F0E7E368E9
:1033000043F04003E3602046FFF7AAFF0C9B23B97C
:10331000A36B43F48033A363E5E7A36B23F480330B
:10332000A363E0E7A36843F00603A360A36843F048
:103330002003A360DAE70000022A0AD00921C2684C
:1033400022F47052C260C36843EA8123C360002044
:103350007047234B0B44234A93422FD9224B0B44F3
:10336000224A93422CD9A1F57403A3F51053204AA5
:10337000934227D9A1F18373A3F5E7431D4A9342F2
:1033800022D31D4B0B441D4A93421FD91C4B0B44A7
:103390001C4A93421CD31C4B0B441C4A934219D326
:1033A000A1F1B773A3F55853194A934214D3194B9B
:1033B0000B44194A934211D20721C0E70F21BEE7FF
:1033C0000E21BCE70D21BAE70C21B8E70B21B6E7C7
:1033D0000A21B4E70921B2E70821B0E70621AEE7E8
:1033E000405327FFFF340C00401E1BFF3F420F00DD
:1033F0007F4F120020D6130060B6E5FE5FE3160093
:1034000000D3CEFE40771B00C05BB3FEC09121000D
:1034100020753800E05459FEE09C4100836843F079
:103420000103836000207047836823F001038360F9
:103430000020704782B000230193890141F02001F0
:103440000161019B01330193054A934205D8036949
:1034500013F0200FF5D1002000E0032002B07047E8
:10346000400D030082B00023019310230361019BF0
:1034700001330193054A934205D8036913F0100FF5
:10348000F5D1002000E0032002B07047400D03009A
:10349000D0F800381943C0F8001800207047000029
:1034A00084B02DE9F041044607A880E80E0000230F
:1034B00006E003F1400204EB820200215160013377
:1034C0000E2BF6D9119F27BBD4F8043843F0020322
:1034D000C4F80438A36B43F40013A363A36B23F471
:1034E0000023A363A36B23F48023A3630023C4F806
:1034F000003E04F50065D4F80038C4F800380C9B91
:10350000012B14D1099B6BB900212046FFF7C0FFA6
:1035100011E0A36B23F40013A363A36B43F4002314
:10352000A363E3E701212046FFF7B2FF03E0032195
:103530002046FFF7ADFF10212046FFF77BFF8046B6
:1035400008B14FF001082046FFF78CFF08B14FF09B
:10355000010800232B616B61EB610AE0C3B94FF0F6
:103560000060C2F8000900220A614FF67F328A60CB
:1035700001330799994210D904EB431202F5106107
:10358000D2F800090028E9DB0020C2F80009EAE7C8
:103590004FF09040C2F80009E5E700230AE0C3B10C
:1035A0004FF0904CC2F800CB002202614FF67F3200
:1035B00082600133994211D904EB431202F5306065
:1035C000D2F8006B002EEADB4FF0000CC2F800CB03
:1035D000EAE74FF0006CC2F800CBE5E72B6923F473
:1035E00080732B610023A3616FF0804363610A9BAA
:1035F0001BB9A36943F01003A361A2690B4B1343EA
:10360000A3610D9B1BB1A36943F00803A361012FC4
:1036100004D04046BDE8F04104B07047A36943F0D0
:10362000804343F00403A361F3E700BF00383C800C
:10363000D0F8083813F0060307D0022B07D0062B6A
:1036400001D00F20704702207047002070470220F1
:10365000704710B591F800C04B78012B23D000F5CE
:10366000006ED0F81C380CF00F040122A24043EA8F
:103670000243C0F81C3800EB4C10D0F8003B13F4A8
:10368000004F0ED1D0F8003B8A68C2F30A02C97815
:1036900042EA8142134343F0805343F40043C0F8AD
:1036A000003B002010BDD0F81C280CF00F0E03FAD0
:1036B0000EF39BB21343C0F81C3800EB4C10D0F84B
:1036C000003913F4004FECD1D0F800398A68C2F306
:1036D0000A02C97842EA814242EA8C5C43EA0C035E
:1036E00043F0805343F40043C0F80039D9E70000A9
:1036F00030B40B784A78012A26D000EB4313D3F874
:10370000002B002A52DBD0F83C480A7802F00F0266
:103710004FF0010C0CFA02F224EA0242C0F83C28F5
:10372000D0F81C28097801F00F010CFA01FC22EAFC
:103730000C42C0F81C28D3F8001B234A0A40C3F8E7
:10374000002B002030BC704700EB4313D3F8002956
:10375000002A1EDBD0F83C580A7802F00F02012440
:1037600004FA02F292B225EA0202C0F83C28D0F82C
:103770001C28097801F00F018C40A4B222EA04044D
:10378000C0F81C48D3F80019104A0A40C3F80029B1
:10379000D7E7D3F8002942F00062C3F80029D3F834
:1037A000002942F08042C3F80029D3E7D3F8002B68
:1037B00042F00062C3F8002BD3F8002B42F08042A5
:1037C000C3F8002B9FE700BF0078F3EF007833ECDD
:1037D00070B40B784C78012C27D000EB431000F527
:1037E00030631C69E40CE4041C611C6924F0FF5480
:1037F00024F4C0141C614C690CB18C684C611C69C8
:1038000044F400241C611C698D68C5F3120C44EA61
:103810000C041C61012A66D0D0F8003B43F004433D
:10382000C0F8003B002070BC70474C696CBB00EBDB
:103830004314D4F8105925F0FF5525F4C015C4F8E9
:103840001059D4F8105945F40025C4F81059D4F88B
:103850001059ED0CED04C4F81059012A34D000EBD6
:103860004313D3F8002942F00442C3F800294B69FE
:10387000002BD7D0D0F834380A7802F00F0101229B
:103880008A401343C0F83438CCE700EB431404F506
:1038900010642569ED0CED042561256925F0FF55BF
:1038A00025F4C01525618D684E69AE4200D94D6181
:1038B000256945F40025256125694E69C6F3120C7A
:1038C00045EA0C052561C8E70A691AB100EB431106
:1038D000C1F8142900EB4310D0F8002942F004424B
:1038E000C0F800299EE7CA68002A95D05A6193E77C
:1038F00010B59DF8084084B903334FEA930E4FF09A
:10390000000C08E000EB023303F5805351F8044B40
:103910001C600CF1010CF445F4D3002010BD000034
:10392000F0B583B00B784C78012C33D000EB431307
:1039300003F5306CDCF81040E40CE404CCF81040E3
:10394000DCF8104024F0FF5424F4C014CCF81040EC
:103950004C69002C40F0CA80DCF810408D68C5F33B
:1039600012052C43CCF81040DCF8104044F400243D
:10397000CCF81040012A00F0D380CA78012A00F068
:10398000D680D3F8002B42F00442C3F8002B00206D
:1039900003B0F0BD4C6984BB00EB4314D4F810595C
:1039A00025F0FF5525F4C015C4F81059D4F8105966
:1039B00045F40025C4F81059D4F81059ED0CED0465
:1039C000C4F81059012A4FD000EB4313D3F8004933
:1039D00044F00444C3F80049CC78012C6DD04B6905
:1039E000002BD4D0D0F834380A7802F00F0101222D
:1039F0008A401343C0F83438C9E700EB4314D4F8C5
:103A00001059ED0CED04C4F81059D4F8105925F0F4
:103A1000FF5525F4C015C4F81059D4F810598E6814
:103A20004F6907EB060C0CF1FF3CBCFBF6FC494E62
:103A300006EACC4C45EA0C05C4F81059D4F81059E4
:103A40004E69C6F312063543C4F8105904F51064E4
:103A5000CD78012DB6D1256925F0C04525612569B0
:103A600045F000552561ADE70A691AB100EB431432
:103A7000C4F81429CA78012A08D000EB4313D3F8FC
:103A8000002942F00442C3F8002980E7D0F8082852
:103A900012F4807F08D100EB4311D1F8002942F0E5
:103AA0000052C1F80029E8E700EB4311D1F80029E2
:103AB00042F08052C1F80029DFE7D0F8084814F43A
:103AC000807F0CD1D3F8004944F00054C3F800497A
:103AD00000928B8A0A78C968FFF70AFF57E7D3F884
:103AE000004944F08054C3F80049F1E78D682C4444
:103AF000013CB4FBF5F4DCF810501FFA84FE154EBF
:103B000006EAC4442543CCF81050DCF810508C6809
:103B10000EFB04F4C4F312042C43CCF8104029E744
:103B2000CA68002A3FF429AFCCF8142025E7D0F862
:103B3000082812F4807F06D1D3F8002B42F00052FF
:103B4000C3F8002B1DE7D3F8002B42F08052C3F8D6
:103B5000002B16E70000F81F00B583B08446084626
:103B60004FEA920E02F00302002305E00CF58051AB
:103B7000096840F8041B01337345F7D39AB10CF57B
:103B8000805CDCF8003001934FF0000C5FFA8CF39E
:103B9000D900019BCB4000F8013B0CF1010C013A2C
:103BA00092B2002AF2D103B05DF804FB0B784A7898
:103BB000012A14D000EB4310D0F8002B002A06DBBA
:103BC0002BB1D0F8003B23F08043C0F8003BD0F885
:103BD000003B43F40013C0F8003B0020704700EBAB
:103BE0004310D0F80029002A06DB2BB1D0F80039A9
:103BF00023F08043C0F80039D0F8003943F40013B3
:103C0000C0F80039E9E70B784A78012A0ED000EBBA
:103C10004310D0F8003B23F40013C0F8003BCB78EE
:103C2000023BDBB2012B15D90020704700EB43109B
:103C3000D0F8003923F40013C0F80039CB78023BE8
:103C4000DBB2012BF0D8D0F8003943F08053C0F834
:103C50000039E9E7D0F8003B43F08053C0F8003B5F
:103C6000E2E7D0F8003823F4FE63C0F80038D0F85B
:103C70000038090101F4FE611943C0F80018002062
:103C80007047D0F8003E23F00303C0F8003ED0F8A0
:103C9000043823F00203C0F8043800207047D0F83D
:103CA000003E23F00303C0F8003ED0F8043843F090
:103CB0000203C0F804380020704742698069104050
:103CC0007047D0F8183800F50060C0691840000C43
:103CD0007047D0F8183800F50060C069184080B20D
:103CE000704700EB4111D1F8082B00F500604069E6
:103CF0001040704710B4D0F81048D0F8343801F0B4
:103D00000F02D340DB01DBB2234300EB411000F58F
:103D10001060806818405DF8044B7047406900F0FF
:103D20000100704738B50546C36823F0C043C3603F
:103D3000012913D019BBC36843F08043C36000243A
:103D40000120FEF72DF901342846FFF7E7FF08B1FF
:103D5000312CF5D9322C14D0002038BDC36843F083
:103D60000053C36000240120FEF71AF901342846ED
:103D7000FFF7D4FF0128EDD0312CF4D9EAE7012078
:103D8000EBE70120E9E7D0F8003923F4FF6323F0E3
:103D90000703C0F80039D0F8043843F48073C0F842
:103DA000043800207047000010B4046C154B9C428E
:103DB00003D9D0F8003B002B16DB0024C0F8104BD1
:103DC000D0F8104B44F40024C0F8104BD0F8104B3E
:103DD00044F01804C0F8104BD0F8104B44F0C04425
:103DE000C0F8104B012903D000205DF8044B704748
:103DF000C0F8142BD0F8003B43F08023C0F8003B00
:103E0000F2E700BF0A30544F98B108B503460020CE
:103E1000C3F8B802C3F8C002C3F8CC0209B1C3F8B2
:103E2000B412012183F89C121A701846FEF7D4FBD5
:103E300008BD0320704710B582B00023ADF80630EE
:103E400061B10446C0F8B812CB6A4BB10DF106005F
:103E50009847C4F8CC02002002B010BD0320FBE755
:103E60000020F9E708B5FEF718FC08BD08B5D0F842
:103E7000B83213B11B68984708BD0320FCE708B5AA
:103E8000D0F8B8320BB15B689847002008BD38B550
:103E9000044600F2AA25284600F065F90123C4F87B
:103EA0009432B4F8B032C4F8983294F8AA1201F0FF
:103EB0001F03012B0DD0022B10D02BB101F080017C
:103EC0002046FEF705FC03E02946204600F009FBEA
:103ED00038BD2946204600F03CFBF9E7294620463C
:103EE00000F06BFBF4E738B504460D4641BB1346C2
:103EF000D0F89422032A01D0084638BDD0F85C11CE
:103F0000D0F86021914209D890F89C32DBB2032BA3
:103F10000FD0204600F090FC2846EEE7891AC0F842
:103F20005C118A4228BF0A46194600F07DFC2846EB
:103F3000E3E7D0F8B8321B69002BEAD09847E8E7EE
:103F400090F89C32DBB2032B01D00020D5E7D0F8EB
:103F5000B8329B690BB19847CFE70020CDE738B561
:103F600004460D4600294AD11346D0F89422022A6D
:103F700005D094F8A032012B3CD0284638BDC26948
:103F8000016A8A420ED88A4218D094F89C32DBB279
:103F9000032B27D080212046FEF79AFB204600F015
:103FA00056FCE6E7521AC261194600F026FC0023CF
:103FB0001A4619462046FEF7ABFBDAE783699942B9
:103FC000E3D8D0F898229342DFD20022114600F0C5
:103FD00014FC0021C4F898120B460A462046FEF74E
:103FE00097FBC6E7D4F8B832DB68002BD2D0204666
:103FF0009847CFE7002384F8A0322846BEE790F820
:104000009C32DBB2032B01D00020B7E7D0F8B832E6
:104010005B690BB19847B1E70020AFE7012380F857
:104020009C320023C0F894324360C0F8A432D0F828
:10403000B832F3B170B50446D0F8BC221AB15B684F
:104040000BB1002198474023002211462046FEF77D
:104050002CFB0126A4F864614025C4F860512B466E
:10406000002280212046FEF720FBA6842562002046
:1040700070BD0320704701740020704790F89C3297
:10408000DBB280F89D32042380F89C320020704718
:1040900090F89C32DBB2042B01D00020704790F8DE
:1040A0009D32DBB280F89C32F7E7D0F8B82262B1DB
:1040B00008B590F89C32DBB2032B01D0002008BD7C
:1040C000D36923B198470020F9E703207047002007
:1040D000F5E7D0F8B82262B108B590F89C32DBB2AF
:1040E000032B01D0002008BD136A23B1984700209C
:1040F000F9E7032070470020F5E7D0F8B82262B155
:1041000008B590F89C32DBB2032B01D0002008BD2B
:10411000536A23B198470020F9E703207047002035
:10412000F5E70020704708B5012380F89C32D0F8ED
:10413000B83213B15B6801799847002008BD034687
:10414000002002E00130C0B201331A78002AF9D110
:10415000704708B54B88012B00D008BDC0F8A432C9
:1041600000F06AFBF9E70B7803704B7843708B78AB
:10417000CA7843EA022343800B794A7943EA02234F
:1041800083808B79CA7943EA0223C380704710B5D4
:1041900004468021FEF79CFA00212046FEF798FA9B
:1041A00010BD30B583B004460D460023ADF806308F
:1041B0004A88130A013B062B00F2AB80DFE803F0CC
:1041C000041F33A9A98D9A00D0F8B4321B680DF1F1
:1041D0000601007C9847EA88002A00F0A380BDF819
:1041E0000630002B00F099809A4228BF1A46ADF89D
:1041F00006200146204600F0F3FA03B030BD037CF0
:1042000043B9D0F8B8329B6A0DF1060098470223F3
:104210004370E0E7D0F8B832DB6A0DF1060098474A
:1042200002234370D7E7D2B2052A52D8DFE802F062
:1042300003101D2A3744D0F8B4325B6823B10DF166
:104240000601007C9847C6E72946FFF7A0FFD4E7A0
:10425000D0F8B4329B6823B10DF10601007C984779
:10426000B9E72946FFF793FFC7E7D0F8B432DB6818
:1042700023B10DF10601007C9847ACE72946FFF712
:1042800086FFBAE7D0F8B4321B6923B10DF10601FD
:10429000007C98479FE72946FFF779FFADE7D0F804
:1042A000B4325B6923B10DF10601007C984792E7B7
:1042B0002946FFF76CFFA0E7D0F8B4329B6923B121
:1042C0000DF10601007C984785E72946FFF75FFF5F
:1042D00093E72946FFF75BFF8FE7037C33B9D0F8FC
:1042E000B8325B6B0DF10600984774E72946FFF77B
:1042F0004EFF82E7037C43B9D0F8B8321B6B0DF157
:10430000060098470723437065E72946FFF73FFFFC
:1043100073E72946FFF73BFF6FE729462046FFF783
:1043200036FF6AE7204600F087FA66E738B50446AC
:104330008B88FBB9CB88EBB94B887F2B1AD803F05D
:104340007F0590F89C32DBB2032B0CD080F89E5294
:104350002946FEF7CDF9204600F06EFA35B102236A
:1043600084F89C3209E0FFF712FF06E0012384F88D
:104370009C3202E02046FFF70AFF38BD70B50446C4
:104380000E468D782E4B1D70012D10D890F89C3262
:10439000DBB2022B0FD0032B23D0FFF7F8FE284B04
:1043A00019782046FFF76BFD0325284670BDFFF7FF
:1043B000EEFE0325F9E78DB145602946FFF756FD6E
:1043C000054620B131462046FFF7E1FEEDE72046E5
:1043D00000F032FA032384F89C32E6E700F02CFA6E
:1043E000E3E7CDB141688D4225D0C9B2FFF747FD63
:1043F000134B197861602046FFF738FD0546B0B1D0
:1044000031462046FFF7C3FE21792046FFF737FDEE
:10441000022384F89C32C8E7022380F89C3245606E
:104420002946FFF72CFD204600F006FABDE720469E
:1044300000F002FAB9E700F0FFF90025B5E700BF88
:10444000501D002008B5CB88012B0BD190F89C3271
:10445000DBB2022B09D9032B09D10122011D00F087
:10446000BFF901E0FFF793FE08BD5BB213B9FFF798
:104470008EFEF9E70146002341F8083F012200F0D3
:10448000AFF9F1E708B590F89C32013B022B12D846
:10449000CB88022B0CD10123C360D0F8A4320BB11E
:1044A0000323C360022200F10C0100F099F908BD5A
:1044B000FFF76DFEFBE7FFF76AFEF8E708B590F837
:1044C0009C32013B022B09D84B88012B00D008BD40
:1044D0000023C0F8A43200F0AFF9F8E7FFF757FE69
:1044E000F5E738B50C7804F06004202C06D0402C99
:1044F00004D054B1FFF74BFE002404E0D0F8B832EA
:104500009B6898470446204638BD4D78092D1DD834
:10451000DFE805F012191C161C08051C0F0BFFF72D
:1045200040FEF0E7FFF702FFEDE7FFF727FF044645
:10453000E9E7FFF787FFE6E7FFF7A4FF2C46E2E78E
:10454000FFF707FEDFE7FFF7B9FFDCE7FFF71FFE26
:10455000D9E770B505460C460B7803F06003202BB5
:1045600007D0402B05D023B1FFF711FE00263046BF
:1045700070BD95F89C32013B022B18D82379012B92
:104580000FD8D5F8B8329B6821462846984706468A
:10459000E388002BEBD10028E9D1284600F04CF944
:1045A000E5E721462846FFF7F2FD0026DFE7214632
:1045B0002846FFF7ECFD0026D9E7F8B506460D467C
:1045C0008B880C7804F06004202C08D0D9B2402CE1
:1045D00005D06CB12946FFF7DAFD002406E0D6F8D5
:1045E000B8329B6829463046984704462046F8BDB5
:1045F0006F78012F2FD0032F05D0002F59D02946D7
:10460000FFF7C5FDF2E790F89C32DBB2022B05D034
:10461000032B12D02946FFF7BAFDE7E709B180293D
:1046200004D129463046FFF7B2FDDFE7FEF750F828
:1046300080213046FEF74CF8D8E76B8823B919B1D2
:10464000802901D0EB881BB1304600F0F5F8CDE7AA
:10465000FEF73EF8F8E790F89C32DBB2022B05D06B
:10466000032B12D02946FFF792FDBFE709B180293D
:1046700004D129463046FFF78AFDB7E7FEF728F850
:1046800080213046FEF724F8B0E76B88002BADD1CF
:1046900011F07F0F0AD1304600F0CEF8D6F8B832CC
:1046A0009B6829463046984704469FE7FEF718F86E
:1046B000F1E790F89C22D2B2022A06D0032A29D030
:1046C0002946FFF764FD3C4690E709B1802913D1E4
:1046D00013F0800F15D101F07F0101EB81018900FA
:1046E00001F5A8713144043100230B6002223046E9
:1046F00000F076F83C4679E72946FFF748FD3C464E
:1047000074E701F07F0101EB810189001031314430
:104710000431E9E75BB2002B1FDB01F00F0202EB73
:10472000820200EB8202B2F8642122B3002B27DB65
:1047300001F07F0303EB83039C0004F5A874344469
:10474000043409B1802924D10023236002222146A8
:10475000304600F045F83C4648E701F00F0202EB16
:10476000820200EB8202928C002ADFD12946FFF7F9
:104770000EFD3C463AE72946FFF709FD3C4635E782
:1047800001F07F0303EB83039C00103434440434B2
:10479000D7E73046FDF754FF10B101232360D5E77A
:1047A00000232360D2E7D0B170B50D46164604460B
:1047B000FFF7C5FC431C5B009BB233802B700323C7
:1047C0006B70022307E0EA5401345A1CD2B2002174
:1047D000A9540233DBB22278002AF4D170BD7047AD
:1047E00008B513460222C0F894228361C3610A46C9
:1047F0000021FDF785FF002008BD08B513460A46D5
:104800000021FDF77DFF002008BD08B513460322F7
:10481000C0F89422C0F85831C0F85C310A46002133
:10482000FDF776FF002008BD08B513460A460021B3
:10483000FDF76EFF002008BD08B50422C0F89422E1
:1048400000231A461946FDF75BFF002008BD08B596
:104850000522C0F8942200231A461946FDF758FF96
:10486000002008BD10B5D0F8BC4284B1D0F8C032E9
:104870007BB194F80002FF280DD09B6894F80122C8
:1048800021469847FF2384F80032002010BD032002
:10489000FCE70020FAE70020F8E70000432303804C
:1048A00000487047A8000020432303800048704759
:1048B000EC00002043230380004870473C010020A7
:1048C0000A230380004870473001002038B5D0F833
:1048D000BC5275B10446FDF7CAFEC5F80C02D4F807
:1048E000C032DB6805F50371D5F804029847002053
:1048F00038BD0320FCE710B5D0F8C442D0F8BC3274
:1049000053B301EB810200EB820292694AB1C1EB21
:10491000C10C04EB8C04646CB2FBF4FC04FB1C22A1
:1049200072B10022C3F81422D0F8C0221469ACB1CD
:104930000A4603F50471D3F80802A047002010BD11
:1049400001EB810300EB830300249C612346224694
:10495000FDF7D6FE2046F2E70320F0E70020EEE761
:10496000F0B583B0D0F8BC6200238DF80730ADF805
:104970000430002E6CD007460C460B7813F060050F
:104980002AD0202D5ED1CA88F2B113F0800F0FD04B
:10499000D0F8C0329B68314660789847E288072A91
:1049A00028BF072231463846FFF71AFF00254CE0A2
:1049B0004B7886F800328B7986F80132CA88314606
:1049C000FFF723FF002540E0D0F8C0329B680022AB
:1049D00048789847002538E04E780B2E2ED8DFE82F
:1049E00006F006342D2D2D2D2D2D2D2D152490F86E
:1049F0009C32DBB2032B03D0FFF7C9FB032524E075
:104A0000022201A9FFF7ECFE35461EE090F89C3229
:104A1000DBB2032B03D0FFF7BAFB032515E001221D
:104A20000DF10701FFF7DCFE0FE090F89C32DBB2DE
:104A3000032B0AD0FFF7ABFB032506E0FFF7A7FB2C
:104A4000032502E0FFF7A3FB0325284603B0F0BDD2
:104A50000325FAE738B504468121FDF731FE00252C
:104A6000258701212046FDF72BFEA4F878518221ED
:104A70002046FDF725FEA4F84C50A4F84E50D4F87B
:104A8000BC324BB1D4F8C0325B689847D4F8BC0252
:104A9000FDF7F8FDC4F8BC52002038BD70B50446DF
:104AA0004FF40770FDF7EAFDB8B30646C4F8BC0240
:104AB000237CBBBB4FF40073022281212046FDF70B
:104AC000F4FD012525874FF4007302222946204674
:104AD000FDF7EBFDA4F878511023A4F84E3008231D
:104AE000032282212046FDF7E0FD0123A4F84C308B
:104AF000D4F8C0321B6898470023C6F81432C6F8B1
:104B00001832257C15BB4FF40073D6F8042201211E
:104B10002046FDF7FDFD284670BD0023C4F8BC32D9
:104B20000225F8E74023022281212046FDF7BDFD42
:104B3000012525874023022229462046FDF7B5FDA1
:104B4000A4F878511023A4F84E30C8E74023D6F8D3
:104B5000042201212046FDF7DBFD0025DBE719B12A
:104B6000C0F8C0120020704703207047D0F8BC3254
:104B70002BB1C3F80812C3F810220020704703209D
:104B80007047D0F8BC321BB1C3F804120020704744
:104B900003207047D0F8BC22A2B108B5D2F8143275
:104BA0000BB1012008BD0123C2F81432D2F8103233
:104BB000C362D2F81032D2F808228121FDF7A0FD9D
:104BC0000020EFE70320704710B5D0F8BC2292B167
:104BD000047C44B94FF40073D2F804220121FDF79C
:104BE00097FD204610BD4023D2F804220121FDF795
:104BF0008FFD0024F5E70324F3E7000008B50A4819
:104C00000A4B03604FF4E133436000238360C360C9
:104C100003610C2242618361C36100F00DF900B9A8
:104C200008BDFBF7EDFFFBE7541D002000440040EA
:104C300000B589B00023039304930593069307936B
:104C40000268154B9A4202D009B05DF804FB0021BE
:104C5000019103F5FA331A6C42F400321A641A6CAB
:104C600002F400320192019A02911A6B42F008029A
:104C70001A631B6B03F008030293029B60230393E8
:104C800002230493032306930723079303A90348EE
:104C9000FDF700F8D8E700BF00440040000C0240D8
:104CA00038B504460268136923F44053C1680B43C6
:104CB000136183680269134342691343C2691A434B
:104CC0000168CB6823F4164323F00C031343CB6035
:104CD0000268536923F4407381690B43536103688D
:104CE000314A934206D002F58062934202D0FCF72B
:104CF00093FF01E0FCF7A0FFE369B3F5004F29D073
:104D00000021031849411B1841F10001C90041EA83
:104D10005371DB00181863684FEA83024FEA9373FC
:104D200041F10001FBF7A4FA204DA5FB0032510927
:104D3000642303FB11031B013233A5FB03235B092F
:104D400003F0F00202EB011203F00F032168134499
:104D50008B6038BD0023021843EB0301121841F1A8
:104D60000001C90041EA5271D200101841F100015E
:104D7000626892185B41FBF77BFA0C4DA5FB003291
:104D80005109642303FB1103DB003233A5FB03232A
:104D90005B095A0002F4F87202EB011203F00703F8
:104DA000216813448B60D4E7001001401F85EB514C
:104DB0002DE9F84305460F4616469946DDF8208052
:104DC0002C68246837EA04030CBF4FF0010C4FF045
:104DD000000CB4452DD1B8F1FF3FF1D0B8F1000F70
:104DE00005D0FDF7D7F8A0EB09004045E8D92A68BF
:104DF00002F10C0353E8003F23F4D0730C3242E875
:104E000000310029F3D12A6802F1140353E8003F6E
:104E100023F00103143242E800310029F3D12023AA
:104E200085F83D3085F83E30002385F83C3003207E
:104E300000E00020BDE8F88358B310B5044690F8B0
:104E40003D300BB3242384F83D302268D36823F42B
:104E50000053D3602046FFF723FF2268136923F431
:104E6000904313612268536923F02A035361226837
:104E7000D36843F40053D36000202064202384F8D7
:104E80003D3084F83E3010BD80F83C30FFF7D0FE56
:104E9000D8E7012070472DE9F04182B01E4690F816
:104EA0003D30DBB2202B54D104460D4690460029FC
:104EB00053D0002A53D090F83C30012B51D001231D
:104EC00080F83C3000230364212380F83D30FDF757
:104ED00061F80746A4F82480A4F82680A368B3F5F7
:104EE000805F05D04FF00008002384F83C3012E0CA
:104EF000236913B14FF00008F6E7A8460025F3E751
:104F000038F8023B2268C3F308035360E28C92B284
:104F1000013A92B2E284E38C9BB273B100963B46B5
:104F2000002280212046FFF743FFE0B9002DE7D0A3
:104F300015F8012B23685A60E8E700963B460022EB
:104F400040212046FFF734FF78B9202384F83D3014
:104F500000E0022002B0BDE8F0810120FAE7012064
:104F6000F8E70220F6E70320F4E70320F2E7000069
:104F700008B5FDF779F90D4C4FF480512046FCF748
:104F800081FF4FF400512046FCF77CFF4FF4804135
:104F90002046FCF777FF4FF400412046FCF772FFF4
:104FA0004FF4FA7001F08CFCE5E700BF000C024002
:104FB00008B502F015FB044A0021044801F022FC68
:104FC000034B186008BD00BF64780008714F0008EB
:104FD000981D002010B588B0014600221D20FCF766
:104FE0006DFF1D20FCF7A2FF00240194144B1A6CE6
:104FF00042F002021A641B6C03F002030193019B4E
:1050000002A903A8FCF728FEFCF706FE43000D48A2
:10501000A0FB03239B0C013B0B480C4A026040F2AF
:10502000E732C260436004618460FCF7D7F810B1D6
:10503000012008B010BD0448FBF766FFF9E700BF88
:105040000038024083DE1B439C1D0020000400400A
:1050500000F1080343604FF0FF328260C3600361D8
:1050600000230360704700230361704743684B606F
:105070009A688A605160996008610368013303602F
:10508000704730B40D68B5F1FF3F11D000F108034F
:105090001C465B681A68AA42FAD963684B6099603B
:1050A0008C606160086103680133036030BC704745
:1050B0000469F2E70369416882688A604168516067
:1050C0005A68824206D0002202611A68013A1A60C8
:1050D0001868704782685A60F5E710B5044601F019
:1050E00059FEA26BE36B9A4204D0002401F074FED7
:1050F000204610BD0124F9E710B5044601F04AFE30
:10510000A36B23B9012401F067FE204610BD0024E3
:10511000F9E770B504461546866B026C5AB9036808
:105120001BB100200136A66370BD806801F0BEF897
:105130000023A360F6E76DB9406802F03BFB226CE8
:10514000636813446360A268934219D32368636061
:105150002846E7E7C06802F02DFB226C5142E36865
:105160009B1AE3602268934202D2A3680B44E36077
:10517000022D01D00020D5E726B1013E0020D1E765
:105180002846CFE70020CDE70346026C6AB110B590
:105190000846D9681144D9609C68A14201D31968B6
:1051A000D960D96802F006FB10BD704738B50546D6
:1051B00001F0F0FD95F8454064B201E0013C64B2B5
:1051C000002C0ADD6B6A43B105F1240000F0C4FF36
:1051D0000028F3D001F054F8F0E7FF2385F84530BC
:1051E00001F0FAFD01F0D6FD95F8444064B201E00B
:1051F000013C64B2002C0ADD2B6943B105F11000BB
:1052000000F0AAFF0028F3D001F03AF8F0E7FF23FE
:1052100085F8443001F0E0FD38BD38B5E0B10D4609
:10522000044601F0B7FD2368E26B216C01FB0230FC
:10523000A0600020A0636360013A02FB0133E360D9
:10524000FF2384F8443084F84530FDB9236963B9FD
:1052500001F0C2FD012038BD4FF0500383F31188E7
:10526000BFF36F8FBFF34F8FFEE704F1100000F024
:1052700073FF0028ECD04FF0E0234FF08052C3F8CA
:10528000042DBFF34F8FBFF36F8FE1E704F11000E0
:10529000FFF7DEFE04F12400FFF7DAFED8E738B5A9
:1052A0001D46049C0B4649B92460E0632364012138
:1052B0002046FFF7B2FF84F84C5038BD2260F4E777
:1052C00040B94FF0500383F31188BFF36F8FBFF3E2
:1052D0004F8FFEE710B584B01C46844653B192B19F
:1052E00089B94FF0500383F31188BFF36F8FBFF379
:1052F0004F8FFEE74FF0500383F31188BFF36F8F9A
:10530000BFF34F8FFEE76AB150230393039B502BEB
:1053100013D04FF0500383F31188BFF36F8FBFF3A7
:105320004F8FFEE70029EFD04FF0500383F3118831
:10533000BFF36F8FBFF34F8FFEE7039B012384F80A
:10534000463000949DF818306046FFF7A8FF2046CD
:1053500004B010BD40B94FF0500383F31188BFF380
:105360006F8FBFF34F8FFEE7F0B583B00D46144645
:10537000064601FB00F0503001F0E0FB074650B15B
:10538000002380F846300090234600F15002294661
:105390003046FFF784FF384603B0F0BD40B94FF008
:1053A000500383F31188BFF36F8FBFF34F8FFEE776
:1053B00010B582B00C46884208D24FF0500383F3F8
:1053C0001188BFF36F8FBFF34F8FFEE70223009367
:1053D000134600221146FFF773FF00B1846302B049
:1053E00010BD40B94FF0500383F31188BFF36F8FA6
:1053F000BFF34F8FFEE710B50C46884208D24FF03E
:10540000500383F31188BFF36F8FBFF34F8FFEE715
:1054100002220021FFF79EFF00B1846310BDF0B5AA
:1054200085B0019288B10F461D460446B1B1022DE8
:1054300020D1E36B012B1DD04FF0500383F3118873
:10544000BFF36F8FBFF34F8FFEE74FF0500383F32F
:105450001188BFF36F8FBFF34F8FFEE7036C002BF4
:10546000E5D04FF0500383F31188BFF36F8FBFF384
:105470004F8FFEE700F00AFF064658B9019B002B4C
:1054800048D04FF0500383F31188BFF36F8FBFF301
:105490004F8FFEE700263DE02A4639462046FFF7BB
:1054A00038FE636A7BB948B14FF0E0234FF0805279
:1054B000C3F8042DBFF34F8FBFF36F8F01F08CFC47
:1054C000012005B0F0BD04F1240000F045FE0028E5
:1054D000F4D04FF0E0234FF08052C3F8042DBFF317
:1054E0004F8FBFF36F8FE9E701F076FC0020E8E70C
:1054F00002A800F077FE012619E0002384F844306A
:1055000021E0002384F8453023E02046FFF74EFEDB
:1055100000F002FD01F03EFCA26BE36B9A42BBD3AC
:10552000022DB9D0019B002BDED0002EE0D001F07F
:1055300053FC00F057FC01F02DFC94F8442052B2CB
:10554000B2F1FF3FD9D094F8452052B2B2F1FF3FFB
:10555000D7D001F041FC01A902A800F04FFED8B954
:105560002046FFF7BAFD0028CFD0019904F11000C2
:1055700000F0BEFD2046FFF719FE00F0CDFC00282C
:10558000C8D14FF0E0234FF08052C3F8042DBFF391
:105590004F8FBFF36F8FBDE72046FFF707FE00F088
:1055A000BBFC00208DE72DE9F84390B10F4616466D
:1055B0001C460546B1B1022C20D1EB6B012B1DD04E
:1055C0004FF0500383F31188BFF36F8FBFF34F8FFA
:1055D000FEE74FF0500383F31188BFF36F8FBFF3E3
:1055E0004F8FFEE7036C002BE5D04FF0500383F3A1
:1055F0001188BFF36F8FBFF34F8FFEE701F0F0FC10
:10560000EFF311894FF0500383F31188BFF36F8FCD
:10561000BFF34F8FAA6BEB6B9A4206D3022C04D0D8
:10562000002089F31188BDE8F88395F845804FFA8A
:1056300088F8AB6B224639462846FFF76AFDB8F179
:10564000FF3F06D008F101035BB285F84530012029
:10565000E7E76B6A0BB90120E3E705F1240000F0EE
:105660007BFD18B126B101203060DAE70120D8E7D0
:105670000120D6E768B170B50C460546036C8BB1C6
:105680004FF0500383F31188BFF36F8FBFF34F8F39
:10569000FEE74FF0500383F31188BFF36F8FBFF322
:1056A0004F8FFEE70368EBB101F09AFCEFF3118630
:1056B0004FF0500383F31188BFF36F8FBFF34F8F09
:1056C000AA6BEB6B934226D995F845305BB2013259
:1056D000AA63B3F1FF3F11D001335BB285F84530C7
:1056E000012019E08368002BDED04FF0500383F3D4
:1056F0001188BFF36F8FBFF34F8FFEE76B6A0BB953
:10570000012009E005F1240000F026FD38B144B184
:105710000120206000E0002086F3118870BD012088
:10572000FAE70120F8E7F0B585B0019290B10F4695
:105730000446C1B100F0AAFD064600BB019B002B48
:105740005ED04FF0500383F31188BFF36F8FBFF328
:105750004F8FFEE74FF0500383F31188BFF36F8F35
:10576000BFF34F8FFEE7036C002BE3D04FF05003E5
:1057700083F31188BFF36F8FBFF34F8FFEE70026CF
:105780003EE039462046FFF7FFFC013DA563236953
:1057900023B901F021FB012005B0F0BD04F1100098
:1057A00000F0DAFC0028F4D04FF0E0234FF08052F4
:1057B000C3F8042DBFF34F8FBFF36F8FE9E701F0FC
:1057C0000BFB0020E8E702A800F00CFD012621E019
:1057D000002384F8443029E0002384F845302BE08E
:1057E0002046FFF7E3FC00F097FB09E02046FFF7B7
:1057F000DDFC00F091FB2046FFF77EFC00283FD146
:1058000001F0C8FAA56B002DBBD1019B002BD6D0AF
:10581000002ED8D001F0E0FA00F0E4FA01F0BAFA74
:1058200094F844305BB2B3F1FF3FD1D094F84530E7
:105830005BB2B3F1FF3FCFD001F0CEFA01A902A8CD
:1058400000F0DCFC0028D1D12046FFF755FC0028F1
:10585000C6D0019904F1240000F04AFC2046FFF76D
:10586000A5FC00F059FB0028CAD14FF0E0234FF00F
:105870008052C3F8042DBFF34F8FBFF36F8FBFE784
:10588000002089E70023072B0CD8074A52F8332061
:105890000AB10133F7E7044A42F8331002EBC303BD
:1058A00058607047704700BFE41D00200023072B9D
:1058B0000FD8084A02EBC3025268824201D001337A
:1058C000F5E7044A002142F8331002EBC3035960A4
:1058D00070477047E41D002038B110B50446FFF74B
:1058E000E5FF94F846304BB110BD4FF0500383F301
:1058F0001188BFF36F8FBFF34F8FFEE7204601F093
:105900009BF9F1E770B504460D46164601F042FAE0
:1059100094F844305BB2B3F1FF3F0DD094F84530BA
:105920005BB2B3F1FF3F0BD001F056FAA36B5BB152
:105930002046FFF73BFC70BD002384F84430EDE7C0
:10594000002384F84530EFE73246294604F124006D
:1059500000F0E6FBECE70000084B1B681B6823B96E
:10596000074B4FF0FF321A607047044B1B68DB682F
:10597000DB685A68024B1A60704700BF281E00207F
:10598000D02200202DE9F04780460D461746994663
:10599000089EDDF824A00A9C9200A521206B01F04E
:1059A00017FF236B07F18042013A03EB820727F0D0
:1059B0000707B5B34FF0000CBCF10F0F0BD815F86B
:1059C0000C2004EB0C0383F8342015F80C3013B1D1
:1059D0000CF1010CF0E7002384F84330372E00D996
:1059E0003726E662E66400252565201DFFF73BFBB0
:1059F00004F11800FFF737FB2461C6F13806A661F1
:105A00006462656584F858504A464146384601F05C
:105A100095F92060BAF1000F01D0CAF80040BDE846
:105A2000F087002384F83430D8E7000038B500242C
:105A300007E004EB840293000E481844FFF708FBCC
:105A40000134372CF5D90C4D2846FFF701FB0B4CE0
:105A50002046FFF7FDFA0A48FFF7FAFA0948FFF770
:105A6000F7FA0948FFF7F4FA084B1D60084B1C6071
:105A700038BD00BF301E0020A4220020B822002024
:105A8000DC22002008230020F4220020281E002011
:105A90002C1E002010B5044601F07CF9224A136840
:105AA00001331360214B1B685BB1214B1B686BB941
:105AB0001E4B1B68DA6AE36A9A4207D81B4B1C60CC
:105AC00004E01A4B1C601368012B29D0194A136893
:105AD000013313606364E06A174B1B68984201D975
